{
  "contractName": "Map3Pool",
  "abi": [
    {
      "inputs": [],
      "stateMutability": "nonpayable",
      "type": "constructor"
    },
    {
      "inputs": [],
      "name": "Version",
      "outputs": [
        {
          "internalType": "int256",
          "name": "",
          "type": "int256"
        }
      ],
      "stateMutability": "view",
      "type": "function"
    },
    {
      "inputs": [],
      "name": "Length",
      "outputs": [
        {
          "internalType": "uint256",
          "name": "",
          "type": "uint256"
        }
      ],
      "stateMutability": "view",
      "type": "function"
    }
  ],
  "bytecode": "0x608060405234801561001057600080fd5b5061029a6028819055506040518060400160405280600881526020017f4879706572696f6e00000000000000000000000000000000000000000000000081525060299080519060200190610065929190610877565b506001600860000160006101000a81548160ff02191690831515021790555073a07306b4d845bd243da172aee557893172ccd04a600860000160016101000a81548173ffffffffffffffffffffffffffffffffffffffff021916908373ffffffffffffffffffffffffffffffffffffffff1602179055506802c3c465ca58ec00006008600301600001600001819055506746ea5ded123f000060086003016000016001016000018190555060ee60f81b600860070160050160006101000a81548160ff021916908360f81c021790555064123456789a60d81b600860070160050160016101000a81548164ffffffffff021916908360d81c02179055506001600860070160050160066101000a81548160ff02191690831515021790555060008090505b60098110156101d95760ff811660f81b600860070160070182600981106101ac57fe5b602091828204019190066101000a81548160ff021916908360f81c02179055508080600101915050610189565b5060008090505b61012c8110156102325760ff811660f81b60086007016008018261012c811061020557fe5b602091828204019190066101000a81548160ff021916908360f81c021790555080806001019150506101e0565b5063deadbeef600860070160120160006004811061024c57fe5b600891828204019190066004026101000a81548163ffffffff021916908363ffffffff16021790555063beeddeed600860070160120160016004811061028e57fe5b600891828204019190066004026101000a81548163ffffffff021916908363ffffffff16021790555063facecafe60086007016012016002600481106102d057fe5b600891828204019190066004026101000a81548163ffffffff021916908363ffffffff16021790555063feedc0de600860070160120160036004811061031257fe5b600891828204019190066004026101000a81548163ffffffff021916908363ffffffff16021790555065ee61f99c1c0460086007016013016005600c811061035657fe5b600591828204019190066006026101000a81548165ffffffffffff021916908365ffffffffffff16021790555061beef600860070160160160006002811061039a57fe5b018190555061dead60086007016016016001600281106103b657fe5b01819055506040518060400160405280601781526020017f4879706572696f6e202d20e6b5b7e4bcafe588a9e5ae890000000000000000008152506008600701600001908051906020019061040c929190610877565b5060405180610140016040528061010c8152602001610c0761010c913960086007016004019080519060200190610444929190610877565b5060405180610100016040528060d88152602001610d1360d89139600860020190805190602001906104779291906108f7565b5063deadbeef60008001600073a07306b4d845bd243da172aee557893172ccd04a73ffffffffffffffffffffffffffffffffffffffff1673ffffffffffffffffffffffffffffffffffffffff1681526020019081526020016000206029018190555061beef60008001600073a07306b4d845bd243da172aee557893172ccd04a73ffffffffffffffffffffffffffffffffffffffff1673ffffffffffffffffffffffffffffffffffffffff1681526020019081526020016000206020016000733cb0b0b6d52885760a5404eb0a593b979c88bcef73ffffffffffffffffffffffffffffffffffffffff1673ffffffffffffffffffffffffffffffffffffffff16815260200190815260200160002060090160026003811061059457fe5b600402016001600281106105a457fe5b600202016000018190555061dead60008001600073a07306b4d845bd243da172aee557893172ccd04a73ffffffffffffffffffffffffffffffffffffffff1673ffffffffffffffffffffffffffffffffffffffff1681526020019081526020016000206020016000733cb0b0b6d52885760a5404eb0a593b979c88bcef73ffffffffffffffffffffffffffffffffffffffff1673ffffffffffffffffffffffffffffffffffffffff16815260200190815260200160002060090160006003811061066a57fe5b6004020160006002811061067a57fe5b600202016000018190555060008090505b600a8110156107695760008001600073a07306b4d845bd243da172aee557893172ccd04a73ffffffffffffffffffffffffffffffffffffffff1673ffffffffffffffffffffffffffffffffffffffff1681526020019081526020016000206020016000733cb0b0b6d52885760a5404eb0a593b979c88bcef73ffffffffffffffffffffffffffffffffffffffff1673ffffffffffffffffffffffffffffffffffffffff16815260200190815260200160002060040160018160018154018082558091505003906000526020600020905050808060010191505061068b565b5061778860008001600073a07306b4d845bd243da172aee557893172ccd04a73ffffffffffffffffffffffffffffffffffffffff1673ffffffffffffffffffffffffffffffffffffffff1681526020019081526020016000206020016000733cb0b0b6d52885760a5404eb0a593b979c88bcef73ffffffffffffffffffffffffffffffffffffffff1673ffffffffffffffffffffffffffffffffffffffff16815260200190815260200160002060040160058154811061082557fe5b9060005260206000209060020201600001819055506001600060030160405161084d90610a02565b908152602001604051809103902060006101000a81548160ff021916908315150217905550610a22565b828054600181600116156101000203166002900490600052602060002090601f016020900481019282601f106108b857805160ff19168380011785556108e6565b828001600101855582156108e6579182015b828111156108e55782518255916020019190600101906108ca565b5b5090506108f39190610977565b5090565b828054600181600116156101000203166002900490600052602060002090601f016020900481019282601f1061093857805160ff1916838001178555610966565b82800160010185558215610966579182015b8281111561096557825182559160200191906001019061094a565b5b5090506109739190610977565b5090565b61099991905b8082111561099557600081600090555060010161097d565b5090565b90565b60006109a9602a83610a17565b91507f307841303733303662346438343542443234334461313732616545353537383960008301527f33313732636364303461000000000000000000000000000000000000000000006020830152602a82019050919050565b6000610a0d8261099c565b9150819050919050565b600081905092915050565b6101d680610a316000396000f3fe608060405234801561001057600080fd5b50600436106100365760003560e01c8063821728821461003b578063bb62860d14610059575b600080fd5b610043610077565b6040516100509190610171565b60405180910390f35b61006161012e565b60405161006e9190610156565b60405180910390f35b600080600001600073a07306b4d845bd243da172aee557893172ccd04a73ffffffffffffffffffffffffffffffffffffffff1673ffffffffffffffffffffffffffffffffffffffff1681526020019081526020016000206020016000733cb0b0b6d52885760a5404eb0a593b979c88bcef73ffffffffffffffffffffffffffffffffffffffff1673ffffffffffffffffffffffffffffffffffffffff16815260200190815260200160002060040180549050905090565b6000602854905090565b6101418161018c565b82525050565b61015081610196565b82525050565b600060208201905061016b6000830184610138565b92915050565b60006020820190506101866000830184610147565b92915050565b6000819050919050565b600081905091905056fea26469706673582212208e17bc811e12f9e8a02fd5cc678066f2b1057b51d763a2682bdb047ecb199a8564736f6c634300060a00334879706572696f6e2c206120646563656e7472616c697a6564206d617020706c6174666f726d2c2061696d7320746f20616368696576652074686520e2809c4f6e65204d6170e2809d20766973696f6e202d20746f2070726f7669646520616e20756e69666965642076696577206f6620676c6f62616c206d6170206461746120616e6420736572766963652c20616e6420746f206d616b6520697420756e6976657273616c6c792061636365737369626c65206a757374206c696b652061207075626c6963207574696c69747920666f72203130422070656f706c652e0ae6b5b7e4bcafe588a9e5ae89e698afe58ebbe4b8ade5bf83e58c96e79a84e59cb0e59bbee7949fe68081e380824d4947664d413047435371475349623344514542415155414134474e4144434269514b4267514451426b51643276554a74794e61324d427734693853304e396b514141487757647231443543505767762f39477347564341556d4c5a684c563645354a6372734c3366634b70616b2b6f4f2b583363686666674f414e566f6c76777150554a6966316369696d6f4d69454f55372b61754c685470526f6858343470686f434a374a3943316e6b6c5478314c36594844726e4d70766c41755266305636484d35526f304c35364c554d775a6d77494441514142",
  "source": "// SPDX-License-Identifier: LGPL-3.0 License\npragma solidity ^0.6.10;\npragma experimental ABIEncoderV2;\n\ncontract Map3Pool {\n    struct Decimal {\n        uint256 f;\n    }\n\n    struct CommissionRates_t {\n        uint256 Rate;\n        Decimal MaxRate;\n        uint256 MaxChangeRate;\n    }\n\n    struct Commission_t {\n        CommissionRates_t CommissionRates;\n        uint256 UpdateHeight;\n    }\n\n    struct Description_t {\n        string Name;\n        string Identity;\n        string WebSite;\n        string SecurityContract;\n        string Details;\n        byte Frozen;\n        bytes5 Serial;\n        bool Destroyed;\n        byte[1] Flag;\n        byte[9] Symbol;\n        byte[300] Signature;\n        uint32[4] Feature;\n        uint48[12] Mac;\n        uint256[2] Version; // FOR TEST;\n    }\n\n    struct Map3Node_t  {\n        bool Actived;\n        address NodeAddress;\n        address InitiatorAddress;\n        bytes NodeKeys;\n        Commission_t Commission;\n        Description_t Description;\n        address SplittedFrom;\n    }\n\n    struct Undelegation_t {\n        uint256 Amount;\n        uint256 Epoch;\n    }\n\n    struct PendingDelegation_t {\n        uint256 Amount;\n        uint256 Epoch;\n    }\n\n    struct Microdelegation_t {\n        address DelegatorAddress;\n        uint256 Amount;\n        uint256 Reward;\n        Undelegation_t[] Undelegations;\n        PendingDelegation_t[] PendingDelegations;\n        PendingDelegation_t[2] PendingDelegationsfixed;\n        PendingDelegation_t[2][3] PendingDelegationsfixed2dimension;\n        bool AutoRenew;\n    }\n\n    struct RedelegationReference_t {\n        address ValidatorAddress;\n        uint256 ReleasedTotalDelegation;\n    }\n\n    struct NodeState_t {\n        byte Status;\n        uint256 NodeAge;\n        uint256 CreationEpoch;\n        uint256 ActivationEpoch;\n        uint256 ReleaseEpoch;\n    }\n\n    struct Map3NodeWrapper_t {\n        Map3Node_t Map3Node;\n        mapping (address => Microdelegation_t)  Microdelegations;\n        //\n        RedelegationReference_t RedelegationReference;\n        uint256 AccumulatedReward;\n        NodeState_t nodeState;\n        uint256 TotalDelegation;\n        uint256 TotalPendingDelegation;\n    }\n\n    struct Map3NodeSnapshot_t {\n        mapping (address => Map3NodeWrapper_t) Map3Nodes;\n        uint256 Epoch;\n    }\n\n    struct IterableAddressSet_t {\n        address[] Keys;\n        mapping (address => bool) Map;\n    }\n\n    struct Map3NodePool_t {\n        mapping (address => Map3NodeWrapper_t) Nodes;\n        mapping (uint64 => Map3NodeSnapshot_t) NodeSnapshotByEpoch;\n        mapping (address => mapping (address => bool) ) NodeAddressSetByDelegator;\n        mapping (string => bool) NodeKeySet;\n        mapping (string => bool) DescriptionIdentitySet;\n        mapping (string => uint256) NodePriority;\n        IterableAddressSet_t AddressSet;\n    }\n\n    Map3NodePool_t pool;\n    Map3Node_t node;\n    int version;\n    string name;\n    address[] addrs;\n    uint48[] signatures;\n    constructor() public {\n        version = 666;\n        name = \"Hyperion\";\n        node.Actived = true;\n        node.NodeAddress = 0xA07306b4d845BD243Da172aeE557893172ccd04a;\n        node.Commission.CommissionRates.Rate = 0x33 * (10**18);\n        node.Commission.CommissionRates.MaxRate.f = 5 * (10**18) + (11 * (10**18)/100);\n        node.Description.Frozen = 0xee;\n        node.Description.Serial = 0x123456789A;\n        node.Description.Destroyed = true;\n        for (uint i = 0; i < node.Description.Symbol.length; i++) {\n            node.Description.Symbol[i] = byte(uint8(i & 0xff));\n        }\n\n        for (uint i = 0; i < node.Description.Signature.length; i++) {\n            node.Description.Signature[i] = byte(uint8(i & 0xff));\n        }\n\n        node.Description.Feature[0] = 0xdeadbeef;\n        node.Description.Feature[1] = 0xbeeddeed;\n        node.Description.Feature[2] = 0xfacecafe;\n        node.Description.Feature[3] = 0xfeedc0de;\n\n        node.Description.Mac[5] = 0xee61f99c1c04;\n\n        node.Description.Version[0]=0xbeef;\n        node.Description.Version[1]=0xdead;\n        node.Description.Name = \"Hyperion - 海伯利安\";\n        node.Description.Details = \"Hyperion, a decentralized map platform, aims to achieve the “One Map” vision - to provide an unified view of global map data and service, and to make it universally accessible just like a public utility for 10B people.\\n海伯利安是去中心化的地图生态。\";\n        node.NodeKeys = bytes(\"MIGfMA0GCSqGSIb3DQEBAQUAA4GNADCBiQKBgQDQBkQd2vUJtyNa2MBw4i8S0N9kQAAHwWdr1D5CPWgv/9GsGVCAUmLZhLV6E5JcrsL3fcKpak+oO+X3chffgOANVolvwqPUJif1ciimoMiEOU7+auLhTpRohX44phoCJ7J9C1nklTx1L6YHDrnMpvlAuRf0V6HM5Ro0L56LUMwZmwIDAQAB\");\n        pool.Nodes[0xA07306b4d845BD243Da172aeE557893172ccd04a].TotalDelegation = 0xdeadbeef;\n        pool.Nodes[0xA07306b4d845BD243Da172aeE557893172ccd04a].Microdelegations[0x3CB0B0B6D52885760A5404eb0A593B979c88BcEF].PendingDelegationsfixed2dimension[2][1].Amount = 0xbeef;\n        pool.Nodes[0xA07306b4d845BD243Da172aeE557893172ccd04a].Microdelegations[0x3CB0B0B6D52885760A5404eb0A593B979c88BcEF].PendingDelegationsfixed2dimension[0][0].Amount = 0xdead;\n        for (uint i = 0; i < 10; i++) {\n            pool.Nodes[0xA07306b4d845BD243Da172aeE557893172ccd04a].Microdelegations[0x3CB0B0B6D52885760A5404eb0A593B979c88BcEF].PendingDelegations.push();\n        }\n\n        pool.Nodes[0xA07306b4d845BD243Da172aeE557893172ccd04a].Microdelegations[0x3CB0B0B6D52885760A5404eb0A593B979c88BcEF].PendingDelegations[5].Amount = 0x7788;\n        pool.NodeKeySet[\"0xA07306b4d845BD243Da172aeE557893172ccd04a\"] = true;\n    }\n\n    function Version() public view returns (int) {\n        return version;\n    }\n\n    function Length() public view returns (uint) {\n        return pool.Nodes[0xA07306b4d845BD243Da172aeE557893172ccd04a].Microdelegations[0x3CB0B0B6D52885760A5404eb0A593B979c88BcEF].PendingDelegations.length;\n    }\n}\n",
  "sourcePath": "/Users/hanson/Documents/Development/hyperion-hyn/go-ethereum/cmd/storegen/test/data/contracts/Map3Pool.sol",
  "compiler": {
    "name": "solc",
    "version": "0.6.10+commit.00c0fcaf.Emscripten.clang"
  },
  "schemaVersion": "3.0.23",
  "updatedAt": "2020-10-15T13:28:26.607Z",
  "devdoc": {
    "methods": {}
  },
  "userdoc": {
    "methods": {}
  }
}