{
  "contractName": "Map3Pool",
  "abi": [
    {
      "inputs": [],
      "stateMutability": "nonpayable",
      "type": "constructor"
    },
    {
      "inputs": [
        {
          "internalType": "int256",
          "name": "tag",
          "type": "int256"
        }
      ],
      "name": "Version",
      "outputs": [
        {
          "internalType": "int256",
          "name": "",
          "type": "int256"
        }
      ],
      "stateMutability": "view",
      "type": "function"
    }
  ],
  "bytecode": "0x608060405234801561001057600080fd5b5061029a6015819055506040518060400160405280600881526020017f4879706572696f6e000000000000000000000000000000000000000000000000815250601690805190602001906100659291906103da565b5073a07306b4d845bd243da172aee557893172ccd04a600660000160006101000a81548173ffffffffffffffffffffffffffffffffffffffff021916908373ffffffffffffffffffffffffffffffffffffffff1602179055506101ec60066003016000016000018190555061beef60066007016005016000600281106100e757fe5b018190555061dead600660070160050160016002811061010357fe5b01819055506040518060400160405280600881526020017f4879706572696f6e000000000000000000000000000000000000000000000000815250600660070160000190805190602001906101599291906103da565b5060405180610100016040528060de815260200161062a60de91396006600701600401908051906020019061018f9291906103da565b5063deadbeef60008001600073a07306b4d845bd243da172aee557893172ccd04a73ffffffffffffffffffffffffffffffffffffffff1673ffffffffffffffffffffffffffffffffffffffff1681526020019081526020016000206018018190555061beef60008001600073a07306b4d845bd243da172aee557893172ccd04a73ffffffffffffffffffffffffffffffffffffffff1673ffffffffffffffffffffffffffffffffffffffff168152602001908152602001600020600f016000733cb0b0b6d52885760a5404eb0a593b979c88bcef73ffffffffffffffffffffffffffffffffffffffff1673ffffffffffffffffffffffffffffffffffffffff1681526020019081526020016000206009016002600381106102ac57fe5b600402016001600281106102bc57fe5b600202016000018190555061dead60008001600073a07306b4d845bd243da172aee557893172ccd04a73ffffffffffffffffffffffffffffffffffffffff1673ffffffffffffffffffffffffffffffffffffffff168152602001908152602001600020600f016000733cb0b0b6d52885760a5404eb0a593b979c88bcef73ffffffffffffffffffffffffffffffffffffffff1673ffffffffffffffffffffffffffffffffffffffff16815260200190815260200160002060090160006003811061038257fe5b6004020160006002811061039257fe5b6002020160000181905550600160006003016040516103b0906104e5565b908152602001604051809103902060006101000a81548160ff021916908315150217905550610505565b828054600181600116156101000203166002900490600052602060002090601f016020900481019282601f1061041b57805160ff1916838001178555610449565b82800160010185558215610449579182015b8281111561044857825182559160200191906001019061042d565b5b509050610456919061045a565b5090565b61047c91905b80821115610478576000816000905550600101610460565b5090565b90565b600061048c602a836104fa565b91507f307841303733303662346438343542443234334461313732616545353537383960008301527f33313732636364303461000000000000000000000000000000000000000000006020830152602a82019050919050565b60006104f08261047f565b9150819050919050565b600081905092915050565b610116806105146000396000f3fe6080604052348015600f57600080fd5b506004361060285760003560e01c8063f958090114602d575b600080fd5b60436004803603810190603f91906076565b6057565b604051604e919060a9565b60405180910390f35b60006015549050919050565b60008135905060708160cc565b92915050565b600060208284031215608757600080fd5b60006093848285016063565b91505092915050565b60a38160c2565b82525050565b600060208201905060bc6000830184609c565b92915050565b6000819050919050565b60d38160c2565b811460dd57600080fd5b5056fea264697066735822122010d0bf990e63f4094031e7ae4326382e66714d254838123e45259d48083cd21264736f6c634300060a00334879706572696f6e2c206120646563656e7472616c697a6564206d617020706c6174666f726d2c2061696d7320746f20616368696576652074686520e2809c4f6e65204d6170e2809d20766973696f6e202d20746f2070726f7669646520616e20756e69666965642076696577206f6620676c6f62616c206d6170206461746120616e6420736572766963652c20616e6420746f206d616b6520697420756e6976657273616c6c792061636365737369626c65206a757374206c696b652061207075626c6963207574696c69747920666f72203130422070656f706c652e",
  "source": "pragma solidity ^0.6.10;\npragma experimental ABIEncoderV2;\n\ncontract Map3Pool {\n    struct CommissionRates_t {\n        uint256 Rate;\n        uint256 MaxRate;\n        uint256 MaxChangeRate;\n    }\n\n    struct Commission_t {\n        CommissionRates_t CommissionRates;\n        uint256 UpdateHeight;\n    }\n\n    struct Description_t {\n        string Name;\n        string Identity;\n        string WebSite;\n        string SecurityContract;\n        string Details;\n        uint256[2] Version; // FOR TEST;\n    }\n\n    struct Map3Node_t  {\n        address NodeAddress;\n        address InitiatorAddress;\n        bytes NodeKeys;\n        Commission_t Commission;\n        Description_t Description;\n        address SplittedFrom;\n    }\n\n    struct Undelegation_t {\n        uint256 Amount;\n        uint256 Epoch;\n    }\n\n    struct PendingDelegation_t {\n        uint256 Amount;\n        uint256 Epoch;\n    }\n\n    struct Microdelegation_t {\n        address DelegatorAddress;\n        uint256 Amount;\n        uint256 Reward;\n        Undelegation_t[] Undelegations;\n        PendingDelegation_t[] PendingDelegations;\n        PendingDelegation_t[2] PendingDelegationsfixed;\n        PendingDelegation_t[2][3] PendingDelegationsfixed2dimension;\n        bool AutoRenew;\n    }\n\n    struct RedelegationReference_t {\n        address ValidatorAddress;\n        uint256 ReleasedTotalDelegation;\n    }\n\n    struct NodeState_t {\n        byte Status;\n        uint256 NodeAge;\n        uint256 CreationEpoch;\n        uint256 ActivationEpoch;\n        uint256 ReleaseEpoch;\n    }\n\n    struct Map3NodeWrapper_t {\n        Map3Node_t Map3Node;\n        mapping (address => Microdelegation_t)  Microdelegations;\n        //\n        RedelegationReference_t RedelegationReference;\n        uint256 AccumulatedReward;\n        NodeState_t nodeState;\n        uint256 TotalDelegation;\n        uint256 TotalPendingDelegation;\n    }\n\n    struct Map3NodeSnapshot_t {\n        mapping (address => Map3NodeWrapper_t) Map3Nodes;\n        uint256 Epoch;\n    }\n\n    struct Map3NodePool_t {\n        mapping (address => Map3NodeWrapper_t) Nodes;\n        mapping (uint64 => Map3NodeSnapshot_t) NodeSnapshotByEpoch;\n        mapping (address => mapping (address => bool) ) NodeAddressSetByDelegator;\n        mapping (string => bool) NodeKeySet;\n        mapping (string => bool) DescriptionIdentitySet;\n        mapping (string => uint256) NodePriority;\n    }\n\n    Map3NodePool_t pool;\n    Map3Node_t node;\n    int version;\n    string name;\n\n    constructor() public {\n        version = 666;\n        name = \"Hyperion\";\n        node.NodeAddress = 0xA07306b4d845BD243Da172aeE557893172ccd04a;\n        node.Commission.CommissionRates.Rate = 0x33 * 10^18;\n        node.Description.Version[0]=0xbeef;\n        node.Description.Version[1]=0xdead;\n        node.Description.Name = \"Hyperion\";\n        node.Description.Details = \"Hyperion, a decentralized map platform, aims to achieve the “One Map” vision - to provide an unified view of global map data and service, and to make it universally accessible just like a public utility for 10B people.\";\n//        node.NodeKeys = bytes(\"MIGfMA0GCSqGSIb3DQEBAQUAA4GNADCBiQKBgQDQBkQd2vUJtyNa2MBw4i8S0N9kQAAHwWdr1D5CPWgv/9GsGVCAUmLZhLV6E5JcrsL3fcKpak+oO+X3chffgOANVolvwqPUJif1ciimoMiEOU7+auLhTpRohX44phoCJ7J9C1nklTx1L6YHDrnMpvlAuRf0V6HM5Ro0L56LUMwZmwIDAQAB\");\n        pool.Nodes[0xA07306b4d845BD243Da172aeE557893172ccd04a].TotalDelegation = 0xdeadbeef;\n        pool.Nodes[0xA07306b4d845BD243Da172aeE557893172ccd04a].Microdelegations[0x3CB0B0B6D52885760A5404eb0A593B979c88BcEF].PendingDelegationsfixed2dimension[2][1].Amount = 0xbeef;\n        pool.Nodes[0xA07306b4d845BD243Da172aeE557893172ccd04a].Microdelegations[0x3CB0B0B6D52885760A5404eb0A593B979c88BcEF].PendingDelegationsfixed2dimension[0][0].Amount = 0xdead;\n\n        pool.NodeKeySet[\"0xA07306b4d845BD243Da172aeE557893172ccd04a\"] = true;\n    }\n\n    function Version(int tag) public view returns (int) {\n        return version;\n    }\n}\n",
  "sourcePath": "/Users/zouguangxian/Bench/projects/hyperion/go-ethereum-storegen/cmd/storegen/test/data/contracts/Map3Pool.sol",
  "compiler": {
    "name": "solc",
    "version": "0.6.10+commit.00c0fcaf.Emscripten.clang"
  },
  "schemaVersion": "3.0.23",
  "updatedAt": "2020-07-23T08:54:44.286Z",
  "devdoc": {
    "methods": {}
  },
  "userdoc": {
    "methods": {}
  }
}